{
  "contractName": "Charity",
  "abi": [
    {
      "inputs": [
        {
          "internalType": "address payable[]",
          "name": "addresses_",
          "type": "address[]"
        }
      ],
      "stateMutability": "nonpayable",
      "type": "constructor"
    },
    {
      "anonymous": false,
      "inputs": [
        {
          "indexed": true,
          "internalType": "address",
          "name": "_donor",
          "type": "address"
        },
        {
          "indexed": false,
          "internalType": "uint256",
          "name": "_value",
          "type": "uint256"
        }
      ],
      "name": "Donation",
      "type": "event"
    },
    {
      "inputs": [],
      "name": "deposit",
      "outputs": [],
      "stateMutability": "payable",
      "type": "function"
    },
    {
      "inputs": [
        {
          "internalType": "address",
          "name": "destinationAddress",
          "type": "address"
        },
        {
          "internalType": "uint256",
          "name": "donationAmount",
          "type": "uint256"
        }
      ],
      "name": "requestAction",
      "outputs": [],
      "stateMutability": "nonpayable",
      "type": "function"
    },
    {
      "inputs": [],
      "name": "getAllSigners",
      "outputs": [
        {
          "internalType": "uint256",
          "name": "",
          "type": "uint256"
        }
      ],
      "stateMutability": "view",
      "type": "function"
    },
    {
      "inputs": [],
      "name": "getAllApprovers",
      "outputs": [
        {
          "internalType": "uint256",
          "name": "",
          "type": "uint256"
        }
      ],
      "stateMutability": "view",
      "type": "function"
    },
    {
      "inputs": [],
      "name": "getTarget",
      "outputs": [
        {
          "internalType": "address",
          "name": "",
          "type": "address"
        }
      ],
      "stateMutability": "view",
      "type": "function"
    },
    {
      "inputs": [],
      "name": "getAmount",
      "outputs": [
        {
          "internalType": "uint256",
          "name": "",
          "type": "uint256"
        }
      ],
      "stateMutability": "view",
      "type": "function"
    },
    {
      "inputs": [],
      "name": "hasApproveAction",
      "outputs": [
        {
          "internalType": "bool",
          "name": "",
          "type": "bool"
        }
      ],
      "stateMutability": "view",
      "type": "function"
    },
    {
      "inputs": [],
      "name": "approveAction",
      "outputs": [],
      "stateMutability": "nonpayable",
      "type": "function"
    },
    {
      "inputs": [],
      "name": "resetApprovers",
      "outputs": [],
      "stateMutability": "nonpayable",
      "type": "function"
    },
    {
      "inputs": [],
      "name": "isAdmin",
      "outputs": [
        {
          "internalType": "bool",
          "name": "",
          "type": "bool"
        }
      ],
      "stateMutability": "view",
      "type": "function"
    },
    {
      "inputs": [],
      "name": "destroy",
      "outputs": [],
      "stateMutability": "nonpayable",
      "type": "function"
    }
  ],
  "bytecode": "0x60806040523480156200001157600080fd5b5060405162001f9538038062001f95833981810160405281019062000037919062000581565b336000806101000a81548173ffffffffffffffffffffffffffffffffffffffff021916908373ffffffffffffffffffffffffffffffffffffffff16021790555080600390805190602001906200008f929190620002e5565b5030600160006101000a81548173ffffffffffffffffffffffffffffffffffffffff021916908373ffffffffffffffffffffffffffffffffffffffff1602179055506000600281905550600360008054906101000a900473ffffffffffffffffffffffffffffffffffffffff169080600181540180825580915050600190039060005260206000200160009091909190916101000a81548173ffffffffffffffffffffffffffffffffffffffff021916908373ffffffffffffffffffffffffffffffffffffffff16021790555060005b6003805490508110156200021c57600160046000600384815481106200018a5762000189620005d2565b5b9060005260206000200160009054906101000a900473ffffffffffffffffffffffffffffffffffffffff1673ffffffffffffffffffffffffffffffffffffffff1673ffffffffffffffffffffffffffffffffffffffff16815260200190815260200160002060006101000a81548160ff021916908315150217905550808062000213906200063a565b9150506200015f565b5060005b600380549050811015620002dd57600060056000600384815481106200024b576200024a620005d2565b5b9060005260206000200160009054906101000a900473ffffffffffffffffffffffffffffffffffffffff1673ffffffffffffffffffffffffffffffffffffffff1673ffffffffffffffffffffffffffffffffffffffff16815260200190815260200160002060006101000a81548160ff0219169083151502179055508080620002d4906200063a565b91505062000220565b505062000687565b82805482825590600052602060002090810192821562000361579160200282015b82811115620003605782518260006101000a81548173ffffffffffffffffffffffffffffffffffffffff021916908373ffffffffffffffffffffffffffffffffffffffff1602179055509160200191906001019062000306565b5b50905062000370919062000374565b5090565b5b808211156200038f57600081600090555060010162000375565b5090565b6000604051905090565b600080fd5b600080fd5b600080fd5b6000601f19601f8301169050919050565b7f4e487b7100000000000000000000000000000000000000000000000000000000600052604160045260246000fd5b620003f782620003ac565b810181811067ffffffffffffffff82111715620004195762000418620003bd565b5b80604052505050565b60006200042e62000393565b90506200043c8282620003ec565b919050565b600067ffffffffffffffff8211156200045f576200045e620003bd565b5b602082029050602081019050919050565b600080fd5b600073ffffffffffffffffffffffffffffffffffffffff82169050919050565b6000620004a28262000475565b9050919050565b620004b48162000495565b8114620004c057600080fd5b50565b600081519050620004d481620004a9565b92915050565b6000620004f1620004eb8462000441565b62000422565b9050808382526020820190506020840283018581111562000517576200051662000470565b5b835b818110156200054457806200052f8882620004c3565b84526020840193505060208101905062000519565b5050509392505050565b600082601f830112620005665762000565620003a7565b5b815162000578848260208601620004da565b91505092915050565b6000602082840312156200059a57620005996200039d565b5b600082015167ffffffffffffffff811115620005bb57620005ba620003a2565b5b620005c9848285016200054e565b91505092915050565b7f4e487b7100000000000000000000000000000000000000000000000000000000600052603260045260246000fd5b7f4e487b7100000000000000000000000000000000000000000000000000000000600052601160045260246000fd5b6000819050919050565b6000620006478262000630565b91507fffffffffffffffffffffffffffffffffffffffffffffffffffffffffffffffff82036200067c576200067b62000601565b5b600182019050919050565b6118fe80620006976000396000f3fe60806040526004361061009c5760003560e01c8063d321fe2911610064578063d321fe291461012f578063d42f2f351461015a578063d46c575f14610185578063f00e6a2a146101ae578063f7747e5b146101d9578063fd5aa0dc146101f05761009c565b806365d8bf80146100a157806383197ef0146100cc5780639135ee22146100e3578063b6db75a0146100fa578063d0e30db014610125575b600080fd5b3480156100ad57600080fd5b506100b661021b565b6040516100c391906111f3565b60405180910390f35b3480156100d857600080fd5b506100e1610382565b005b3480156100ef57600080fd5b506100f8610449565b005b34801561010657600080fd5b5061010f6108bf565b60405161011c9190611229565b60405180910390f35b61012d61092a565b005b34801561013b57600080fd5b506101446109c3565b60405161015191906111f3565b60405180910390f35b34801561016657600080fd5b5061016f610a60565b60405161017c91906111f3565b60405180910390f35b34801561019157600080fd5b506101ac60048036038101906101a791906112d3565b610bc7565b005b3480156101ba57600080fd5b506101c3610e9e565b6040516101d09190611322565b60405180910390f35b3480156101e557600080fd5b506101ee610f5b565b005b3480156101fc57600080fd5b506102056110f3565b6040516102129190611229565b60405180910390f35b600060011515600460003373ffffffffffffffffffffffffffffffffffffffff1673ffffffffffffffffffffffffffffffffffffffff16815260200190815260200160002060009054906101000a900460ff161515146102b0576040517f08c379a00000000000000000000000000000000000000000000000000000000081526004016102a7906113e6565b60405180910390fd5b6000805b60038054905081101561037a576001151560056000600384815481106102dd576102dc611406565b5b9060005260206000200160009054906101000a900473ffffffffffffffffffffffffffffffffffffffff1673ffffffffffffffffffffffffffffffffffffffff1673ffffffffffffffffffffffffffffffffffffffff16815260200190815260200160002060009054906101000a900460ff16151503610367576001826103649190611464565b91505b8080610372906114ba565b9150506102b4565b508091505090565b60008054906101000a900473ffffffffffffffffffffffffffffffffffffffff1673ffffffffffffffffffffffffffffffffffffffff163373ffffffffffffffffffffffffffffffffffffffff1614610410576040517f08c379a000000000000000000000000000000000000000000000000000000000815260040161040790611574565b60405180910390fd5b60008054906101000a900473ffffffffffffffffffffffffffffffffffffffff1673ffffffffffffffffffffffffffffffffffffffff16ff5b60011515600460003373ffffffffffffffffffffffffffffffffffffffff1673ffffffffffffffffffffffffffffffffffffffff16815260200190815260200160002060009054906101000a900460ff161515146104dc576040517f08c379a00000000000000000000000000000000000000000000000000000000081526004016104d3906113e6565b60405180910390fd5b60011515600560003373ffffffffffffffffffffffffffffffffffffffff1673ffffffffffffffffffffffffffffffffffffffff16815260200190815260200160002060009054906101000a900460ff1615150361056f576040517f08c379a000000000000000000000000000000000000000000000000000000000815260040161056690611606565b60405180910390fd5b3073ffffffffffffffffffffffffffffffffffffffff16600160009054906101000a900473ffffffffffffffffffffffffffffffffffffffff1673ffffffffffffffffffffffffffffffffffffffff16141580156105d05750600060025414155b61060f576040517f08c379a000000000000000000000000000000000000000000000000000000000815260040161060690611698565b60405180910390fd5b6001600560003373ffffffffffffffffffffffffffffffffffffffff1673ffffffffffffffffffffffffffffffffffffffff16815260200190815260200160002060006101000a81548160ff0219169083151502179055506000805b6003805490508110156107315760011515600560006003848154811061069457610693611406565b5b9060005260206000200160009054906101000a900473ffffffffffffffffffffffffffffffffffffffff1673ffffffffffffffffffffffffffffffffffffffff1673ffffffffffffffffffffffffffffffffffffffff16815260200190815260200160002060009054906101000a900460ff1615150361071e5760018261071b9190611464565b91505b8080610729906114ba565b91505061066b565b5060038054905081036108bc5760005b6003805490508110156107f7576000600560006003848154811061076857610767611406565b5b9060005260206000200160009054906101000a900473ffffffffffffffffffffffffffffffffffffffff1673ffffffffffffffffffffffffffffffffffffffff1673ffffffffffffffffffffffffffffffffffffffff16815260200190815260200160002060006101000a81548160ff02191690831515021790555080806107ef906114ba565b915050610741565b50600160009054906101000a900473ffffffffffffffffffffffffffffffffffffffff1673ffffffffffffffffffffffffffffffffffffffff166108fc633b9aca0060025461084691906116b8565b9081150290604051600060405180830381858888f19350505050158015610871573d6000803e3d6000fd5b5030600160006101000a81548173ffffffffffffffffffffffffffffffffffffffff021916908373ffffffffffffffffffffffffffffffffffffffff16021790555060006002819055505b50565b600060011515600460003373ffffffffffffffffffffffffffffffffffffffff1673ffffffffffffffffffffffffffffffffffffffff16815260200190815260200160002060009054906101000a900460ff161515036109225760019050610927565b600090505b90565b6000341161096d576040517f08c379a000000000000000000000000000000000000000000000000000000000815260040161096490611784565b60405180910390fd5b60003490503373ffffffffffffffffffffffffffffffffffffffff167f5d8bc849764969eb1bcc6d0a2f55999d0167c1ccec240a4f39cf664ca9c4148e826040516109b891906111f3565b60405180910390a250565b600060011515600460003373ffffffffffffffffffffffffffffffffffffffff1673ffffffffffffffffffffffffffffffffffffffff16815260200190815260200160002060009054906101000a900460ff16151514610a58576040517f08c379a0000000000000000000000000000000000000000000000000000000008152600401610a4f906113e6565b60405180910390fd5b600254905090565b600060011515600460003373ffffffffffffffffffffffffffffffffffffffff1673ffffffffffffffffffffffffffffffffffffffff16815260200190815260200160002060009054906101000a900460ff16151514610af5576040517f08c379a0000000000000000000000000000000000000000000000000000000008152600401610aec906113e6565b60405180910390fd5b6000805b600380549050811015610bbf57600115156004600060038481548110610b2257610b21611406565b5b9060005260206000200160009054906101000a900473ffffffffffffffffffffffffffffffffffffffff1673ffffffffffffffffffffffffffffffffffffffff1673ffffffffffffffffffffffffffffffffffffffff16815260200190815260200160002060009054906101000a900460ff16151503610bac57600182610ba99190611464565b91505b8080610bb7906114ba565b915050610af9565b508091505090565b60011515600460003373ffffffffffffffffffffffffffffffffffffffff1673ffffffffffffffffffffffffffffffffffffffff16815260200190815260200160002060009054906101000a900460ff16151514610c5a576040517f08c379a0000000000000000000000000000000000000000000000000000000008152600401610c51906113e6565b60405180910390fd5b818073ffffffffffffffffffffffffffffffffffffffff166108fc60009081150290604051600060405180830381858888f19350505050610cd0576040517f08c379a0000000000000000000000000000000000000000000000000000000008152600401610cc790611816565b60405180910390fd5b8147633b9aca0082610ce291906116b8565b11158015610cff57506000633b9aca0082610cfd91906116b8565b115b610d3e576040517f08c379a0000000000000000000000000000000000000000000000000000000008152600401610d35906118a8565b60405180910390fd5b83600160006101000a81548173ffffffffffffffffffffffffffffffffffffffff021916908373ffffffffffffffffffffffffffffffffffffffff1602179055508260028190555060005b600380549050811015610e3f5760006005600060038481548110610db057610daf611406565b5b9060005260206000200160009054906101000a900473ffffffffffffffffffffffffffffffffffffffff1673ffffffffffffffffffffffffffffffffffffffff1673ffffffffffffffffffffffffffffffffffffffff16815260200190815260200160002060006101000a81548160ff0219169083151502179055508080610e37906114ba565b915050610d89565b506001600560003373ffffffffffffffffffffffffffffffffffffffff1673ffffffffffffffffffffffffffffffffffffffff16815260200190815260200160002060006101000a81548160ff02191690831515021790555050505050565b600060011515600460003373ffffffffffffffffffffffffffffffffffffffff1673ffffffffffffffffffffffffffffffffffffffff16815260200190815260200160002060009054906101000a900460ff16151514610f33576040517f08c379a0000000000000000000000000000000000000000000000000000000008152600401610f2a906113e6565b60405180910390fd5b600160009054906101000a900473ffffffffffffffffffffffffffffffffffffffff16905090565b60011515600460003373ffffffffffffffffffffffffffffffffffffffff1673ffffffffffffffffffffffffffffffffffffffff16815260200190815260200160002060009054906101000a900460ff16151514610fee576040517f08c379a0000000000000000000000000000000000000000000000000000000008152600401610fe5906113e6565b60405180910390fd5b30600160006101000a81548173ffffffffffffffffffffffffffffffffffffffff021916908373ffffffffffffffffffffffffffffffffffffffff160217905550600060028190555060005b6003805490508110156110f0576000600560006003848154811061106157611060611406565b5b9060005260206000200160009054906101000a900473ffffffffffffffffffffffffffffffffffffffff1673ffffffffffffffffffffffffffffffffffffffff1673ffffffffffffffffffffffffffffffffffffffff16815260200190815260200160002060006101000a81548160ff02191690831515021790555080806110e8906114ba565b91505061103a565b50565b600060011515600460003373ffffffffffffffffffffffffffffffffffffffff1673ffffffffffffffffffffffffffffffffffffffff16815260200190815260200160002060009054906101000a900460ff16151514611188576040517f08c379a000000000000000000000000000000000000000000000000000000000815260040161117f906113e6565b60405180910390fd5b600560003373ffffffffffffffffffffffffffffffffffffffff1673ffffffffffffffffffffffffffffffffffffffff16815260200190815260200160002060009054906101000a900460ff16905090565b6000819050919050565b6111ed816111da565b82525050565b600060208201905061120860008301846111e4565b92915050565b60008115159050919050565b6112238161120e565b82525050565b600060208201905061123e600083018461121a565b92915050565b600080fd5b600073ffffffffffffffffffffffffffffffffffffffff82169050919050565b600061127482611249565b9050919050565b61128481611269565b811461128f57600080fd5b50565b6000813590506112a18161127b565b92915050565b6112b0816111da565b81146112bb57600080fd5b50565b6000813590506112cd816112a7565b92915050565b600080604083850312156112ea576112e9611244565b5b60006112f885828601611292565b9250506020611309858286016112be565b9150509250929050565b61131c81611269565b82525050565b60006020820190506113376000830184611313565b92915050565b600082825260208201905092915050565b7f4d6574686f6420617661696c61626c65206f6e6c7920746f207468652075736560008201527f722074686174206465706c6f7965642074686520636f6e7472616374206f722060208201527f74686520617574686f72736564207369676e6572000000000000000000000000604082015250565b60006113d060548361133d565b91506113db8261134e565b606082019050919050565b600060208201905081810360008301526113ff816113c3565b9050919050565b7f4e487b7100000000000000000000000000000000000000000000000000000000600052603260045260246000fd5b7f4e487b7100000000000000000000000000000000000000000000000000000000600052601160045260246000fd5b600061146f826111da565b915061147a836111da565b9250827fffffffffffffffffffffffffffffffffffffffffffffffffffffffffffffffff038211156114af576114ae611435565b5b828201905092915050565b60006114c5826111da565b91507fffffffffffffffffffffffffffffffffffffffffffffffffffffffffffffffff82036114f7576114f6611435565b5b600182019050919050565b7f4d6574686f6420617661696c61626c65206f6e6c7920746f207468652075736560008201527f722074686174206465706c6f7965642074686520636f6e747261637400000000602082015250565b600061155e603c8361133d565b915061156982611502565b604082019050919050565b6000602082019050818103600083015261158d81611551565b9050919050565b7f4d6574686f6420617661696c61626c65206f6e6c79207768656e20757365722060008201527f686173206e6f7420617070726f76656400000000000000000000000000000000602082015250565b60006115f060308361133d565b91506115fb82611594565b604082019050919050565b6000602082019050818103600083015261161f816115e3565b9050919050565b7f4d6574686f6420617661696c61626c65206f6e6c79207768656e20746172676560008201527f7420616e6420616d6f756e7420686173206265656e2073657400000000000000602082015250565b600061168260398361133d565b915061168d82611626565b604082019050919050565b600060208201905081810360008301526116b181611675565b9050919050565b60006116c3826111da565b91506116ce836111da565b9250817fffffffffffffffffffffffffffffffffffffffffffffffffffffffffffffffff048311821515161561170757611706611435565b5b828202905092915050565b7f5472616e7366657220616d6f756e742068617320746f2062652067726561746560008201527f72207468616e20302e0000000000000000000000000000000000000000000000602082015250565b600061176e60298361133d565b915061177982611712565b604082019050919050565b6000602082019050818103600083015261179d81611761565b9050919050565b7f4d6574686f6420617661696c61626c65206f6e6c7920746f20612076616c696460008201527f2070617961626c65206164647265737300000000000000000000000000000000602082015250565b600061180060308361133d565b915061180b826117a4565b604082019050919050565b6000602082019050818103600083015261182f816117f3565b9050919050565b7f5661756c7420646f6573206e6f7420636f6e6174696e20656e6f75676820666f60008201527f7220646f6e6174696f6e00000000000000000000000000000000000000000000602082015250565b6000611892602a8361133d565b915061189d82611836565b604082019050919050565b600060208201905081810360008301526118c181611885565b905091905056fea264697066735822122027e380fa7fc3c78dfeec3643f2e04a63f39c60ad662016bce77fd8eb6bb94ee164736f6c634300080e0033",
  "immutableReferences": {},
  "source": "pragma solidity >=0.5.8 <0.9.0;\r\n\r\n/// @title A contract that is able to facilitate donations to different charities\r\n/// whenever a user wants to make a transfer of funds to another user.\r\ncontract Charity {\r\n    address payable owner;\r\n    address payable target;\r\n    uint amount;\r\n    address payable[] addresses;\r\n    mapping(address=>bool) signers;\r\n    mapping(address=>bool) approvers;\r\n\r\n\r\n    /// @param addresses_ The list of addresses tat is valid to do actions.\r\n    constructor(address payable[] memory addresses_) public {\r\n        owner = payable(msg.sender);\r\n        addresses = addresses_;\r\n        target = payable(address(this));\r\n        amount = 0;\r\n        addresses.push(owner);\r\n        for(uint i=0; i<addresses.length; i++){\r\n            signers[addresses[i]] = true;\r\n        }\r\n        for(uint i=0; i<addresses.length; i++){\r\n            approvers[addresses[i]] = false;\r\n        }\r\n    }\r\n\r\n    /// Restricts the access only to the user who deployed the contract.\r\n    modifier restrictToOwner() {\r\n        require(msg.sender == owner, 'Method available only to the user that deployed the contract');\r\n        _;\r\n    }\r\n\r\n\r\n    /// Restricts the access only to the user who deployed the contract or authorised signers.\r\n    modifier restrictToAuthoriser() {\r\n        require(signers[msg.sender]==true , 'Method available only to the user that deployed the contract or the authorsed signer');\r\n        _;\r\n    }\r\n\r\n    modifier isValid(address sender) {\r\n        require(payable(sender).send(0) , 'Method available only to a valid payable address');\r\n        _;\r\n    }\r\n\r\n    modifier isAuthoriseAllowed() {\r\n        require(target!=payable(address(this)) && amount != 0, 'Method available only when target and amount has been set');\r\n        _;\r\n    }\r\n\r\n    modifier hasApproved() {\r\n        require(approvers[msg.sender]!=true, 'Method available only when user has not approved');\r\n        _;\r\n    }\r\n\r\n    /// Validates that the donated amount is within acceptable limits.\r\n    ///\r\n    /// @param donationAmount The target donation amount.\r\n    modifier validateDonationAmount(uint256 donationAmount) {\r\n        require((donationAmount*1000000000) <= address(this).balance && (donationAmount*1000000000)>0,\r\n            'Vault does not conatin enough for donation');\r\n        _;\r\n    }\r\n\r\n    /// Validates that the amount to transfer is not zero.\r\n    modifier validateTransferAmount() {\r\n        require(msg.value > 0, 'Transfer amount has to be greater than 0.');\r\n        _;\r\n    }\r\n\r\n    /// Transmits the address of the donor and the amount donated.\r\n    event Donation(\r\n        address indexed _donor,\r\n        uint256 _value\r\n    );\r\n\r\n    function deposit() public \r\n    validateTransferAmount() payable {\r\n        uint256 donationAmount = msg.value;\r\n        emit Donation(msg.sender, donationAmount);\r\n    }\r\n\r\n    function requestAction(address destinationAddress, uint256 donationAmount) public \r\n    restrictToAuthoriser()\r\n    isValid(destinationAddress)\r\n    validateDonationAmount(donationAmount) {\r\n        target = payable(destinationAddress);\r\n        amount = donationAmount;\r\n        for(uint i=0; i<addresses.length; i++){\r\n            approvers[addresses[i]] = false;\r\n        }\r\n        approvers[msg.sender] = true;\r\n    }\r\n\r\n    function getAllSigners() public restrictToAuthoriser() view returns(uint) {\r\n        uint count = 0;\r\n        for(uint i=0; i<addresses.length; i++){\r\n            if (signers[addresses[i]] == true){\r\n                count+=1;\r\n            }\r\n        }\r\n\r\n        return count;\r\n    }\r\n\r\n    function getAllApprovers() public restrictToAuthoriser() view returns(uint) {\r\n        uint count = 0;\r\n        for(uint i=0; i<addresses.length; i++){\r\n            if (approvers[addresses[i]] == true){\r\n                count+=1;\r\n            }\r\n        }\r\n\r\n        return count;\r\n    }\r\n\r\n    function getTarget() public restrictToAuthoriser() view returns(address) {\r\n        return target;\r\n    }\r\n\r\n    function getAmount() public restrictToAuthoriser() view returns(uint) {\r\n        return amount;\r\n    }\r\n\r\n    function hasApproveAction() public\r\n    restrictToAuthoriser() view returns(bool)\r\n    {\r\n        return approvers[msg.sender];\r\n    }\r\n    \r\n    function approveAction() public \r\n    restrictToAuthoriser()\r\n    hasApproved()\r\n    isAuthoriseAllowed() {\r\n        approvers[msg.sender] = true;\r\n        uint count = 0;\r\n        for(uint i=0; i<addresses.length; i++){\r\n            if (approvers[addresses[i]] == true) {\r\n                count+=1;\r\n            }\r\n        }\r\n        if (count == (addresses.length)){\r\n            for(uint i=0; i<addresses.length; i++){\r\n                approvers[addresses[i]] = false;\r\n            }\r\n            target.transfer(amount*1000000000);\r\n            target = payable(address(this));\r\n            amount = 0;\r\n        }\r\n    }\r\n\r\n    function resetApprovers() public restrictToAuthoriser() {\r\n        target = payable(address(this));\r\n        amount = 0;\r\n        for(uint i=0; i<addresses.length; i++){\r\n            approvers[addresses[i]] = false;\r\n        }\r\n    }\r\n\r\n    function isAdmin() public view returns(bool) {\r\n        if (signers[msg.sender] == true){\r\n            return true;\r\n        }\r\n        return false;\r\n    }\r\n    \r\n    // Destroys the contract and renders it unusable.\r\n    function destroy() public restrictToOwner() {\r\n        selfdestruct(owner);\r\n    }\r\n}",
  "sourcePath": "C:\\Users\\zazak\\Desktop\\blockchain-for-fun\\truffle\\contracts\\Charity.sol",
  "compiler": {
    "name": "solc",
    "version": "0.8.14+commit.80d49f37.Emscripten.clang"
  },
  "schemaVersion": "3.4.10",
  "updatedAt": "2022-10-31T19:20:31.276Z",
  "devdoc": {
    "kind": "dev",
    "methods": {
      "constructor": {
        "params": {
          "addresses_": "The list of addresses tat is valid to do actions."
        }
      }
    },
    "title": "A contract that is able to facilitate donations to different charities whenever a user wants to make a transfer of funds to another user.",
    "version": 1
  },
  "userdoc": {
    "events": {
      "Donation(address,uint256)": {
        "notice": "Transmits the address of the donor and the amount donated."
      }
    },
    "kind": "user",
    "methods": {},
    "version": 1
  }
}